{
  "_format": "hh3-artifact-1",
  "contractName": "VotingSystem",
  "sourceName": "contracts/VotingSystem.sol",
  "abi": [
    {
      "inputs": [],
      "stateMutability": "nonpayable",
      "type": "constructor"
    },
    {
      "anonymous": false,
      "inputs": [
        {
          "indexed": true,
          "internalType": "uint256",
          "name": "electionId",
          "type": "uint256"
        },
        {
          "indexed": true,
          "internalType": "uint256",
          "name": "candidateId",
          "type": "uint256"
        },
        {
          "indexed": false,
          "internalType": "string",
          "name": "name",
          "type": "string"
        }
      ],
      "name": "CandidateAdded",
      "type": "event"
    },
    {
      "anonymous": false,
      "inputs": [
        {
          "indexed": true,
          "internalType": "uint256",
          "name": "electionId",
          "type": "uint256"
        },
        {
          "indexed": false,
          "internalType": "string",
          "name": "title",
          "type": "string"
        }
      ],
      "name": "ElectionCreated",
      "type": "event"
    },
    {
      "anonymous": false,
      "inputs": [
        {
          "indexed": true,
          "internalType": "uint256",
          "name": "electionId",
          "type": "uint256"
        }
      ],
      "name": "ElectionEnded",
      "type": "event"
    },
    {
      "anonymous": false,
      "inputs": [
        {
          "indexed": true,
          "internalType": "uint256",
          "name": "electionId",
          "type": "uint256"
        }
      ],
      "name": "ElectionStarted",
      "type": "event"
    },
    {
      "anonymous": false,
      "inputs": [
        {
          "indexed": true,
          "internalType": "uint256",
          "name": "electionId",
          "type": "uint256"
        },
        {
          "indexed": true,
          "internalType": "uint256",
          "name": "candidateId",
          "type": "uint256"
        },
        {
          "indexed": true,
          "internalType": "address",
          "name": "voter",
          "type": "address"
        }
      ],
      "name": "Voted",
      "type": "event"
    },
    {
      "inputs": [
        {
          "internalType": "uint256",
          "name": "_electionId",
          "type": "uint256"
        },
        {
          "internalType": "string",
          "name": "_name",
          "type": "string"
        }
      ],
      "name": "addCandidate",
      "outputs": [],
      "stateMutability": "nonpayable",
      "type": "function"
    },
    {
      "inputs": [
        {
          "internalType": "uint256",
          "name": "",
          "type": "uint256"
        },
        {
          "internalType": "uint256",
          "name": "",
          "type": "uint256"
        }
      ],
      "name": "candidates",
      "outputs": [
        {
          "internalType": "uint256",
          "name": "id",
          "type": "uint256"
        },
        {
          "internalType": "string",
          "name": "name",
          "type": "string"
        },
        {
          "internalType": "uint256",
          "name": "voteCount",
          "type": "uint256"
        }
      ],
      "stateMutability": "view",
      "type": "function"
    },
    {
      "inputs": [
        {
          "internalType": "string",
          "name": "_title",
          "type": "string"
        }
      ],
      "name": "createElection",
      "outputs": [],
      "stateMutability": "nonpayable",
      "type": "function"
    },
    {
      "inputs": [],
      "name": "electionCount",
      "outputs": [
        {
          "internalType": "uint256",
          "name": "",
          "type": "uint256"
        }
      ],
      "stateMutability": "view",
      "type": "function"
    },
    {
      "inputs": [
        {
          "internalType": "uint256",
          "name": "",
          "type": "uint256"
        }
      ],
      "name": "elections",
      "outputs": [
        {
          "internalType": "uint256",
          "name": "id",
          "type": "uint256"
        },
        {
          "internalType": "string",
          "name": "title",
          "type": "string"
        },
        {
          "internalType": "bool",
          "name": "isActive",
          "type": "bool"
        },
        {
          "internalType": "uint256",
          "name": "candidateCount",
          "type": "uint256"
        },
        {
          "internalType": "uint256",
          "name": "totalVotes",
          "type": "uint256"
        }
      ],
      "stateMutability": "view",
      "type": "function"
    },
    {
      "inputs": [
        {
          "internalType": "uint256",
          "name": "_electionId",
          "type": "uint256"
        }
      ],
      "name": "endElection",
      "outputs": [],
      "stateMutability": "nonpayable",
      "type": "function"
    },
    {
      "inputs": [
        {
          "internalType": "uint256",
          "name": "_electionId",
          "type": "uint256"
        },
        {
          "internalType": "uint256",
          "name": "_candidateId",
          "type": "uint256"
        }
      ],
      "name": "getCandidate",
      "outputs": [
        {
          "internalType": "uint256",
          "name": "id",
          "type": "uint256"
        },
        {
          "internalType": "string",
          "name": "name",
          "type": "string"
        },
        {
          "internalType": "uint256",
          "name": "voteCount",
          "type": "uint256"
        }
      ],
      "stateMutability": "view",
      "type": "function"
    },
    {
      "inputs": [
        {
          "internalType": "uint256",
          "name": "_electionId",
          "type": "uint256"
        }
      ],
      "name": "getElection",
      "outputs": [
        {
          "internalType": "uint256",
          "name": "id",
          "type": "uint256"
        },
        {
          "internalType": "string",
          "name": "title",
          "type": "string"
        },
        {
          "internalType": "bool",
          "name": "isActive",
          "type": "bool"
        },
        {
          "internalType": "uint256",
          "name": "candidateCount",
          "type": "uint256"
        },
        {
          "internalType": "uint256",
          "name": "totalVotes",
          "type": "uint256"
        }
      ],
      "stateMutability": "view",
      "type": "function"
    },
    {
      "inputs": [
        {
          "internalType": "uint256",
          "name": "_electionId",
          "type": "uint256"
        },
        {
          "internalType": "address",
          "name": "_user",
          "type": "address"
        }
      ],
      "name": "hasUserVoted",
      "outputs": [
        {
          "internalType": "bool",
          "name": "",
          "type": "bool"
        }
      ],
      "stateMutability": "view",
      "type": "function"
    },
    {
      "inputs": [
        {
          "internalType": "uint256",
          "name": "",
          "type": "uint256"
        },
        {
          "internalType": "address",
          "name": "",
          "type": "address"
        }
      ],
      "name": "hasVoted",
      "outputs": [
        {
          "internalType": "bool",
          "name": "",
          "type": "bool"
        }
      ],
      "stateMutability": "view",
      "type": "function"
    },
    {
      "inputs": [],
      "name": "owner",
      "outputs": [
        {
          "internalType": "address",
          "name": "",
          "type": "address"
        }
      ],
      "stateMutability": "view",
      "type": "function"
    },
    {
      "inputs": [
        {
          "internalType": "uint256",
          "name": "_electionId",
          "type": "uint256"
        }
      ],
      "name": "startElection",
      "outputs": [],
      "stateMutability": "nonpayable",
      "type": "function"
    },
    {
      "inputs": [
        {
          "internalType": "uint256",
          "name": "_electionId",
          "type": "uint256"
        },
        {
          "internalType": "uint256",
          "name": "_candidateId",
          "type": "uint256"
        }
      ],
      "name": "vote",
      "outputs": [],
      "stateMutability": "nonpayable",
      "type": "function"
    }
  ],
  "bytecode": "0x608060405234801561000f575f80fd5b50335f806101000a81548173ffffffffffffffffffffffffffffffffffffffff021916908373ffffffffffffffffffffffffffffffffffffffff160217905550611b008061005c5f395ff3fe608060405234801561000f575f80fd5b50600436106100cd575f3560e01c80637de142421161008a5780639c98bcbb116100645780639c98bcbb146102295780639d71077714610245578063b384abef14610279578063dc296ae114610295576100cd565b80637de14242146101bb5780638da5cb5b146101ed578063997d28301461020b576100cd565b806315cf4a5f146100d15780631750a3d0146100ed57806343859632146101095780634bd46448146101395780635e6fef011461016b5780636d32dc4b1461019f575b5f80fd5b6100eb60048036038101906100e6919061112f565b6102c5565b005b610107600480360381019061010291906111a9565b610438565b005b610123600480360381019061011e919061125d565b610643565b60405161013091906112b5565b60405180910390f35b610153600480360381019061014e91906112ce565b61066d565b60405161016293929190611395565b60405180910390f35b610185600480360381019061018091906113d1565b61075e565b6040516101969594939291906113fc565b60405180910390f35b6101b960048036038101906101b491906113d1565b610822565b005b6101d560048036038101906101d091906112ce565b6109b2565b6040516101e493929190611395565b60405180910390f35b6101f5610a69565b6040516102029190611463565b60405180910390f35b610213610a8c565b604051610220919061147c565b60405180910390f35b610243600480360381019061023e91906113d1565b610a92565b005b61025f600480360381019061025a91906113d1565b610bca565b6040516102709594939291906113fc565b60405180910390f35b610293600480360381019061028e91906112ce565b610ce2565b005b6102af60048036038101906102aa919061125d565b610f80565b6040516102bc91906112b5565b60405180910390f35b5f8054906101000a900473ffffffffffffffffffffffffffffffffffffffff1673ffffffffffffffffffffffffffffffffffffffff163373ffffffffffffffffffffffffffffffffffffffff1614610352576040517f08c379a0000000000000000000000000000000000000000000000000000000008152600401610349906114df565b60405180910390fd5b60015f8154809291906103649061152a565b91905055506040518060a0016040528060015481526020018281526020015f151581526020015f81526020015f81525060025f60015481526020019081526020015f205f820151815f015560208201518160010190816103c4919061176b565b506040820151816002015f6101000a81548160ff02191690831515021790555060608201518160030155608082015181600401559050506001547f52be7c4e77b4de76b7607d621492061fe13b58597e72dfb5e51ab8f6187ed1418260405161042d919061183a565b60405180910390a250565b5f8054906101000a900473ffffffffffffffffffffffffffffffffffffffff1673ffffffffffffffffffffffffffffffffffffffff163373ffffffffffffffffffffffffffffffffffffffff16146104c5576040517f08c379a00000000000000000000000000000000000000000000000000000000081526004016104bc906114df565b60405180910390fd5b5f821180156104d657506001548211155b610515576040517f08c379a000000000000000000000000000000000000000000000000000000000815260040161050c906118a4565b60405180910390fd5b5f60025f8481526020019081526020015f209050806002015f9054906101000a900460ff161561057a576040517f08c379a00000000000000000000000000000000000000000000000000000000081526004016105719061190c565b60405180910390fd5b806003015f81548092919061058e9061152a565b91905055506040518060600160405280826003015481526020018381526020015f81525060035f8581526020019081526020015f205f836003015481526020019081526020015f205f820151815f015560208201518160010190816105f3919061176b565b50604082015181600201559050508060030154837fed8911b3df733b7d5f75724158e54478ea12e30f49c9d31b5261879f5b76586f84604051610636919061183a565b60405180910390a3505050565b6004602052815f5260405f20602052805f5260405f205f915091509054906101000a900460ff1681565b5f60605f8060035f8781526020019081526020015f205f8681526020019081526020015f206040518060600160405290815f82015481526020016001820180546106b69061159e565b80601f01602080910402602001604051908101604052809291908181526020018280546106e29061159e565b801561072d5780601f106107045761010080835404028352916020019161072d565b820191905f5260205f20905b81548152906001019060200180831161071057829003601f168201915b505050505081526020016002820154815250509050805f015181602001518260400151935093509350509250925092565b6002602052805f5260405f205f91509050805f0154908060010180546107839061159e565b80601f01602080910402602001604051908101604052809291908181526020018280546107af9061159e565b80156107fa5780601f106107d1576101008083540402835291602001916107fa565b820191905f5260205f20905b8154815290600101906020018083116107dd57829003601f168201915b505050505090806002015f9054906101000a900460ff16908060030154908060040154905085565b5f8054906101000a900473ffffffffffffffffffffffffffffffffffffffff1673ffffffffffffffffffffffffffffffffffffffff163373ffffffffffffffffffffffffffffffffffffffff16146108af576040517f08c379a00000000000000000000000000000000000000000000000000000000081526004016108a6906114df565b60405180910390fd5b5f811180156108c057506001548111155b6108ff576040517f08c379a00000000000000000000000000000000000000000000000000000000081526004016108f6906118a4565b60405180910390fd5b6002805f8381526020019081526020015f20600301541015610956576040517f08c379a000000000000000000000000000000000000000000000000000000000815260040161094d90611974565b60405180910390fd5b600160025f8381526020019081526020015f206002015f6101000a81548160ff021916908315150217905550807f159eee87222a0489c529f2153c26ad65d718f2cc33ebaa8d399d1dd5b39facaa60405160405180910390a250565b6003602052815f5260405f20602052805f5260405f205f9150915050805f0154908060010180546109e29061159e565b80601f0160208091040260200160405190810160405280929190818152602001828054610a0e9061159e565b8015610a595780601f10610a3057610100808354040283529160200191610a59565b820191905f5260205f20905b815481529060010190602001808311610a3c57829003601f168201915b5050505050908060020154905083565b5f8054906101000a900473ffffffffffffffffffffffffffffffffffffffff1681565b60015481565b5f8054906101000a900473ffffffffffffffffffffffffffffffffffffffff1673ffffffffffffffffffffffffffffffffffffffff163373ffffffffffffffffffffffffffffffffffffffff1614610b1f576040517f08c379a0000000000000000000000000000000000000000000000000000000008152600401610b16906114df565b60405180910390fd5b5f81118015610b3057506001548111155b610b6f576040517f08c379a0000000000000000000000000000000000000000000000000000000008152600401610b66906118a4565b60405180910390fd5b5f60025f8381526020019081526020015f206002015f6101000a81548160ff021916908315150217905550807f562cd572b2ba3b666cd989fc4ca98419ec81e75f04528df9d9d76fdb7807ee7160405160405180910390a250565b5f60605f805f8060025f8881526020019081526020015f206040518060a00160405290815f8201548152602001600182018054610c069061159e565b80601f0160208091040260200160405190810160405280929190818152602001828054610c329061159e565b8015610c7d5780601f10610c5457610100808354040283529160200191610c7d565b820191905f5260205f20905b815481529060010190602001808311610c6057829003601f168201915b50505050508152602001600282015f9054906101000a900460ff16151515158152602001600382015481526020016004820154815250509050805f01518160200151826040015183606001518460800151955095509550955095505091939590929450565b5f82118015610cf357506001548211155b610d32576040517f08c379a0000000000000000000000000000000000000000000000000000000008152600401610d29906118a4565b60405180910390fd5b5f60025f8481526020019081526020015f209050806002015f9054906101000a900460ff16610d96576040517f08c379a0000000000000000000000000000000000000000000000000000000008152600401610d8d906119dc565b60405180910390fd5b60045f8481526020019081526020015f205f3373ffffffffffffffffffffffffffffffffffffffff1673ffffffffffffffffffffffffffffffffffffffff1681526020019081526020015f205f9054906101000a900460ff1615610e2f576040517f08c379a0000000000000000000000000000000000000000000000000000000008152600401610e2690611a44565b60405180910390fd5b5f82118015610e42575080600301548211155b610e81576040517f08c379a0000000000000000000000000000000000000000000000000000000008152600401610e7890611aac565b60405180910390fd5b600160045f8581526020019081526020015f205f3373ffffffffffffffffffffffffffffffffffffffff1673ffffffffffffffffffffffffffffffffffffffff1681526020019081526020015f205f6101000a81548160ff02191690831515021790555060035f8481526020019081526020015f205f8381526020019081526020015f206002015f815480929190610f189061152a565b9190505550806004015f815480929190610f319061152a565b91905055503373ffffffffffffffffffffffffffffffffffffffff1682847fd91ecafccf238642dccd41161308b3eebe62a12bc5819daf5164780c221ec95b60405160405180910390a4505050565b5f60045f8481526020019081526020015f205f8373ffffffffffffffffffffffffffffffffffffffff1673ffffffffffffffffffffffffffffffffffffffff1681526020019081526020015f205f9054906101000a900460ff16905092915050565b5f604051905090565b5f80fd5b5f80fd5b5f80fd5b5f80fd5b5f601f19601f8301169050919050565b7f4e487b71000000000000000000000000000000000000000000000000000000005f52604160045260245ffd5b61104182610ffb565b810181811067ffffffffffffffff821117156110605761105f61100b565b5b80604052505050565b5f611072610fe2565b905061107e8282611038565b919050565b5f67ffffffffffffffff82111561109d5761109c61100b565b5b6110a682610ffb565b9050602081019050919050565b828183375f83830152505050565b5f6110d36110ce84611083565b611069565b9050828152602081018484840111156110ef576110ee610ff7565b5b6110fa8482856110b3565b509392505050565b5f82601f83011261111657611115610ff3565b5b81356111268482602086016110c1565b91505092915050565b5f6020828403121561114457611143610feb565b5b5f82013567ffffffffffffffff81111561116157611160610fef565b5b61116d84828501611102565b91505092915050565b5f819050919050565b61118881611176565b8114611192575f80fd5b50565b5f813590506111a38161117f565b92915050565b5f80604083850312156111bf576111be610feb565b5b5f6111cc85828601611195565b925050602083013567ffffffffffffffff8111156111ed576111ec610fef565b5b6111f985828601611102565b9150509250929050565b5f73ffffffffffffffffffffffffffffffffffffffff82169050919050565b5f61122c82611203565b9050919050565b61123c81611222565b8114611246575f80fd5b50565b5f8135905061125781611233565b92915050565b5f806040838503121561127357611272610feb565b5b5f61128085828601611195565b925050602061129185828601611249565b9150509250929050565b5f8115159050919050565b6112af8161129b565b82525050565b5f6020820190506112c85f8301846112a6565b92915050565b5f80604083850312156112e4576112e3610feb565b5b5f6112f185828601611195565b925050602061130285828601611195565b9150509250929050565b61131581611176565b82525050565b5f81519050919050565b5f82825260208201905092915050565b5f5b83811015611352578082015181840152602081019050611337565b5f8484015250505050565b5f6113678261131b565b6113718185611325565b9350611381818560208601611335565b61138a81610ffb565b840191505092915050565b5f6060820190506113a85f83018661130c565b81810360208301526113ba818561135d565b90506113c9604083018461130c565b949350505050565b5f602082840312156113e6576113e5610feb565b5b5f6113f384828501611195565b91505092915050565b5f60a08201905061140f5f83018861130c565b8181036020830152611421818761135d565b905061143060408301866112a6565b61143d606083018561130c565b61144a608083018461130c565b9695505050505050565b61145d81611222565b82525050565b5f6020820190506114765f830184611454565b92915050565b5f60208201905061148f5f83018461130c565b92915050565b7f4e6f74206f776e657200000000000000000000000000000000000000000000005f82015250565b5f6114c9600983611325565b91506114d482611495565b602082019050919050565b5f6020820190508181035f8301526114f6816114bd565b9050919050565b7f4e487b71000000000000000000000000000000000000000000000000000000005f52601160045260245ffd5b5f61153482611176565b91507fffffffffffffffffffffffffffffffffffffffffffffffffffffffffffffffff8203611566576115656114fd565b5b600182019050919050565b7f4e487b71000000000000000000000000000000000000000000000000000000005f52602260045260245ffd5b5f60028204905060018216806115b557607f821691505b6020821081036115c8576115c7611571565b5b50919050565b5f819050815f5260205f209050919050565b5f6020601f8301049050919050565b5f82821b905092915050565b5f6008830261162a7fffffffffffffffffffffffffffffffffffffffffffffffffffffffffffffffff826115ef565b61163486836115ef565b95508019841693508086168417925050509392505050565b5f819050919050565b5f61166f61166a61166584611176565b61164c565b611176565b9050919050565b5f819050919050565b61168883611655565b61169c61169482611676565b8484546115fb565b825550505050565b5f90565b6116b06116a4565b6116bb81848461167f565b505050565b5b818110156116de576116d35f826116a8565b6001810190506116c1565b5050565b601f821115611723576116f4816115ce565b6116fd846115e0565b8101602085101561170c578190505b611720611718856115e0565b8301826116c0565b50505b505050565b5f82821c905092915050565b5f6117435f1984600802611728565b1980831691505092915050565b5f61175b8383611734565b9150826002028217905092915050565b6117748261131b565b67ffffffffffffffff81111561178d5761178c61100b565b5b611797825461159e565b6117a28282856116e2565b5f60209050601f8311600181146117d3575f84156117c1578287015190505b6117cb8582611750565b865550611832565b601f1984166117e1866115ce565b5f5b82811015611808578489015182556001820191506020850194506020810190506117e3565b868310156118255784890151611821601f891682611734565b8355505b6001600288020188555050505b505050505050565b5f6020820190508181035f830152611852818461135d565b905092915050565b7f496e76616c696420656c656374696f6e000000000000000000000000000000005f82015250565b5f61188e601083611325565b91506118998261185a565b602082019050919050565b5f6020820190508181035f8301526118bb81611882565b9050919050565b7f456c656374696f6e20616c7265616479207374617274656400000000000000005f82015250565b5f6118f6601883611325565b9150611901826118c2565b602082019050919050565b5f6020820190508181035f830152611923816118ea565b9050919050565b7f4e656564206174206c6561737420322063616e646964617465730000000000005f82015250565b5f61195e601a83611325565b91506119698261192a565b602082019050919050565b5f6020820190508181035f83015261198b81611952565b9050919050565b7f456c656374696f6e206973206e6f7420616374697665000000000000000000005f82015250565b5f6119c6601683611325565b91506119d182611992565b602082019050919050565b5f6020820190508181035f8301526119f3816119ba565b9050919050565b7f596f7520616c726561647920766f7465640000000000000000000000000000005f82015250565b5f611a2e601183611325565b9150611a39826119fa565b602082019050919050565b5f6020820190508181035f830152611a5b81611a22565b9050919050565b7f496e76616c69642063616e6469646174650000000000000000000000000000005f82015250565b5f611a96601183611325565b9150611aa182611a62565b602082019050919050565b5f6020820190508181035f830152611ac381611a8a565b905091905056fea26469706673582212208d34e4049df778e98a02eda52c2e8de0322e551a5db8f74c73d2225a4264f54b64736f6c63430008140033",
  "linkReferences": {},
  "deployedLinkReferences": {},
  "immutableReferences": {},
  "inputSourceName": "project/contracts/VotingSystem.sol",
  "buildInfoId": "solc-0_8_20-045ef1fbbc1742a19f5200220f83ce60ce294305"
}